{
  "contractName": "MyGeoLocationTracker",
  "abi": [
    {
      "inputs": [
        {
          "name": "_myGeoLocationStorage",
          "type": "address"
        }
      ],
      "payable": false,
      "stateMutability": "nonpayable",
      "type": "constructor"
    },
    {
      "anonymous": false,
      "inputs": [
        {
          "indexed": false,
          "name": "addr",
          "type": "address"
        },
        {
          "indexed": false,
          "name": "lat",
          "type": "bytes32"
        },
        {
          "indexed": false,
          "name": "lng",
          "type": "bytes32"
        }
      ],
      "name": "newLocation",
      "type": "event"
    },
    {
      "constant": false,
      "inputs": [
        {
          "name": "lat",
          "type": "bytes32"
        },
        {
          "name": "lng",
          "type": "bytes32"
        }
      ],
      "name": "registerLocation",
      "outputs": [],
      "payable": false,
      "stateMutability": "nonpayable",
      "type": "function"
    },
    {
      "constant": true,
      "inputs": [],
      "name": "getUserLocations",
      "outputs": [
        {
          "name": "lat",
          "type": "bytes32[]"
        },
        {
          "name": "lng",
          "type": "bytes32[]"
        }
      ],
      "payable": false,
      "stateMutability": "view",
      "type": "function"
    },
    {
      "constant": true,
      "inputs": [
        {
          "name": "addr",
          "type": "address"
        }
      ],
      "name": "checkUserExists",
      "outputs": [
        {
          "name": "",
          "type": "bool"
        }
      ],
      "payable": false,
      "stateMutability": "view",
      "type": "function"
    }
  ],
  "bytecode": "0x608060405234801561001057600080fd5b50604051602080610635833981016040525160008054600160a060020a03909216600160a060020a03199092169190911790556105e3806100526000396000f3006080604052600436106100565763ffffffff7c0100000000000000000000000000000000000000000000000000000000600035041663133f50f5811461005b5780633a53cdc414610090578063954c3cf41461013e575b600080fd5b34801561006757600080fd5b5061007c600160a060020a036004351661015b565b604080519115158252519081900360200190f35b34801561009c57600080fd5b506100a56102ac565b604051808060200180602001838103835285818151815260200191508051906020019060200280838360005b838110156100e95781810151838201526020016100d1565b50505050905001838103825284818151815260200191508051906020019060200280838360005b83811015610128578181015183820152602001610110565b5050505090500194505050505060405180910390f35b34801561014a57600080fd5b50610159600435602435610464565b005b6000606060008060009054906101000a9004600160a060020a0316600160a060020a031663a591efde6040518163ffffffff167c0100000000000000000000000000000000000000000000000000000000028152600401600060405180830381600087803b1580156101cc57600080fd5b505af11580156101e0573d6000803e3d6000fd5b505050506040513d6000823e601f3d908101601f19168201604052602081101561020957600080fd5b81019080805164010000000081111561022157600080fd5b8201602081018481111561023457600080fd5b815185602082028301116401000000008211171561025157600080fd5b50909550600094505050505081518110156102a55783600160a060020a0316828281518110151561027e57fe5b90602001906020020151600160a060020a031614156102a057600192506102a5565b600092505b5050919050565b6060806102b83361015b565b151561032557604080517f08c379a000000000000000000000000000000000000000000000000000000000815260206004820152601460248201527f5573657220646f6573206e6f7420657869737473000000000000000000000000604482015290519081900360640190fd5b60008054604080517f4ab8eaa60000000000000000000000000000000000000000000000000000000081523360048201529051600160a060020a0390921692634ab8eaa69260248084019382900301818387803b15801561038557600080fd5b505af1158015610399573d6000803e3d6000fd5b505050506040513d6000823e601f3d908101601f1916820160409081528110156103c257600080fd5b8101908080516401000000008111156103da57600080fd5b820160208101848111156103ed57600080fd5b815185602082028301116401000000008211171561040a57600080fd5b5050929190602001805164010000000081111561042657600080fd5b8201602081018481111561043957600080fd5b815185602082028301116401000000008211171561045657600080fd5b509496509450505050509091565b61046d3361015b565b15156104ec5760008054604080517f2199d5cd0000000000000000000000000000000000000000000000000000000081523360048201529051600160a060020a0390921692632199d5cd9260248084019382900301818387803b1580156104d357600080fd5b505af11580156104e7573d6000803e3d6000fd5b505050505b60008054604080517ff3b6f63700000000000000000000000000000000000000000000000000000000815233600482015260248101869052604481018590529051600160a060020a039092169263f3b6f6379260648084019382900301818387803b15801561055a57600080fd5b505af115801561056e573d6000803e3d6000fd5b5050604080513381526020810186905280820185905290517f15e593c6adf2be5c425dc6d28f250fde7cde94a024de469489d6302951ae89e69350908190036060019150a150505600a165627a7a723058207043ae77a9cf72ee1d2a8cdd11650702dca454028d34c708348fdd344fc4b8060029",
  "source": "pragma solidity 0.4.24;\r\n\r\nimport \"./MyGeoLocationStorage.sol\";\r\n\r\ncontract MyGeoLocationTracker {\r\n    \r\n    event newLocation(address addr, bytes32 lat, bytes32 lng);\r\n    MyGeoLocationStorage myGeoLocationStorage;\r\n    \r\n    constructor(address _myGeoLocationStorage) public {\r\n        myGeoLocationStorage = MyGeoLocationStorage(_myGeoLocationStorage);\r\n    }\r\n\r\n    // setters\r\n    function registerLocation(bytes32 lat, bytes32 lng) public {\r\n        \r\n        if (!checkUserExists(msg.sender))\r\n            myGeoLocationStorage.registerUser(msg.sender);    \r\n\r\n        myGeoLocationStorage.registerLocation(msg.sender, lat, lng);\r\n        emit newLocation(msg.sender, lat, lng);\r\n    }\r\n    \r\n    // only the user can see the places he visited\r\n    function getUserLocations() public view returns (bytes32[] memory lat, bytes32[] memory lng) {\r\n        require(checkUserExists(msg.sender), \"User does not exists\");\r\n        return myGeoLocationStorage.getLocations(msg.sender);\r\n    }\r\n    \r\n    function checkUserExists(address addr) public view returns (bool) {\r\n        address[] memory users = myGeoLocationStorage.getUserAddresses();\r\n        \r\n        for (uint i = 0; i < users.length; i++) {\r\n            if (users[i] == addr) {\r\n                return true;\r\n            } else {\r\n                return false;\r\n            }\r\n        }\r\n    }\r\n}",
  "sourcePath": "C:\\Users\\lucas.vieira\\Desktop\\Dapps\\blockchain-tracking\\contracts\\MyGeoLocationTracker.sol",
  "compiler": {
    "name": "solc",
    "version": "0.4.24+commit.e67f0147.Emscripten.clang"
  },
  "schemaVersion": "2.0.1",
  "updatedAt": "2018-12-10T18:09:40.469Z"
}