{
  "contractName": "MyGeoLocationTracker",
  "abi": [
    {
      "inputs": [
        {
          "name": "_myGeoLocationStorage",
          "type": "address"
        }
      ],
      "payable": false,
      "stateMutability": "nonpayable",
      "type": "constructor"
    },
    {
      "anonymous": false,
      "inputs": [
        {
          "indexed": false,
          "name": "addr",
          "type": "address"
        },
        {
          "indexed": false,
          "name": "lat",
          "type": "bytes32"
        },
        {
          "indexed": false,
          "name": "lng",
          "type": "bytes32"
        },
        {
          "indexed": false,
          "name": "date",
          "type": "bytes32"
        }
      ],
      "name": "newLocation",
      "type": "event"
    },
    {
      "constant": false,
      "inputs": [
        {
          "name": "lat",
          "type": "bytes32"
        },
        {
          "name": "lng",
          "type": "bytes32"
        },
        {
          "name": "date",
          "type": "bytes32"
        }
      ],
      "name": "registerLocation",
      "outputs": [],
      "payable": false,
      "stateMutability": "nonpayable",
      "type": "function"
    },
    {
      "constant": true,
      "inputs": [],
      "name": "getUserLocations",
      "outputs": [
        {
          "name": "lat",
          "type": "bytes32[]"
        },
        {
          "name": "lng",
          "type": "bytes32[]"
        },
        {
          "name": "date",
          "type": "bytes32[]"
        }
      ],
      "payable": false,
      "stateMutability": "view",
      "type": "function"
    },
    {
      "constant": true,
      "inputs": [
        {
          "name": "addr",
          "type": "address"
        }
      ],
      "name": "checkUserExists",
      "outputs": [
        {
          "name": "",
          "type": "bool"
        }
      ],
      "payable": false,
      "stateMutability": "view",
      "type": "function"
    }
  ],
  "bytecode": "0x608060405234801561001057600080fd5b5060405160208061070b8339810180604052602081101561003057600080fd5b505160008054600160a060020a03909216600160a060020a03199092169190911790556106a9806100626000396000f3fe6080604052600436106100565763ffffffff7c0100000000000000000000000000000000000000000000000000000000600035041663133f50f5811461005b5780633a53cdc4146100a2578063d5dc8d0514610195575b600080fd5b34801561006757600080fd5b5061008e6004803603602081101561007e57600080fd5b5035600160a060020a03166101cd565b604080519115158252519081900360200190f35b3480156100ae57600080fd5b506100b7610313565b60405180806020018060200180602001848103845287818151815260200191508051906020019060200280838360005b838110156100ff5781810151838201526020016100e7565b50505050905001848103835286818151815260200191508051906020019060200280838360005b8381101561013e578181015183820152602001610126565b50505050905001848103825285818151815260200191508051906020019060200280838360005b8381101561017d578181015183820152602001610165565b50505050905001965050505050505060405180910390f35b3480156101a157600080fd5b506101cb600480360360608110156101b857600080fd5b508035906020810135906040013561051b565b005b60008054604080517fa591efde0000000000000000000000000000000000000000000000000000000081529051606092600160a060020a03169163a591efde9160048083019287929190829003018186803b15801561022b57600080fd5b505afa15801561023f573d6000803e3d6000fd5b505050506040513d6000823e601f3d908101601f19168201604052602081101561026857600080fd5b81019080805164010000000081111561028057600080fd5b8201602081018481111561029357600080fd5b81518560208202830111640100000000821117156102b057600080fd5b5090945060009350505050815181101561030b5783600160a060020a031682828151811015156102dc57fe5b90602001906020020151600160a060020a031614156103005760019250505061030e565b60009250505061030e565b50505b919050565b6060806060610321336101cd565b151561038e57604080517f08c379a000000000000000000000000000000000000000000000000000000000815260206004820152601460248201527f5573657220646f6573206e6f7420657869737473000000000000000000000000604482015290519081900360640190fd5b60008054604080517f4ab8eaa60000000000000000000000000000000000000000000000000000000081523360048201529051600160a060020a0390921692634ab8eaa692602480840193829003018186803b1580156103ed57600080fd5b505afa158015610401573d6000803e3d6000fd5b505050506040513d6000823e601f3d908101601f19168201604052606081101561042a57600080fd5b81019080805164010000000081111561044257600080fd5b8201602081018481111561045557600080fd5b815185602082028301116401000000008211171561047257600080fd5b5050929190602001805164010000000081111561048e57600080fd5b820160208101848111156104a157600080fd5b81518560208202830111640100000000821117156104be57600080fd5b505092919060200180516401000000008111156104da57600080fd5b820160208101848111156104ed57600080fd5b815185602082028301116401000000008211171561050a57600080fd5b509599949850965092945050505050565b610524336101cd565b15156105a35760008054604080517f2199d5cd0000000000000000000000000000000000000000000000000000000081523360048201529051600160a060020a0390921692632199d5cd9260248084019382900301818387803b15801561058a57600080fd5b505af115801561059e573d6000803e3d6000fd5b505050505b60008054604080517fca863c850000000000000000000000000000000000000000000000000000000081523360048201526024810187905260448101869052606481018590529051600160a060020a039092169263ca863c859260848084019382900301818387803b15801561061857600080fd5b505af115801561062c573d6000803e3d6000fd5b505060408051338152602081018790528082018690526060810185905290517f7d0d8b0dd1434860bc2baf6a3570552defc6b764c640cedf03a3ec1a29692cd79350908190036080019150a150505056fea165627a7a72305820f8803585690075364503d71eb374d5ec8517084b4f0707e637ac791ba7e8b0310029",
  "source": "pragma solidity 0.5.0;\r\n\r\nimport \"./MyGeoLocationStorage.sol\";\r\n\r\ncontract MyGeoLocationTracker {\r\n    \r\n    event newLocation(\r\n        address addr, \r\n        bytes32 lat, \r\n        bytes32 lng,\r\n        bytes32 date\r\n    );\r\n    MyGeoLocationStorage myGeoLocationStorage;\r\n    \r\n    constructor(address _myGeoLocationStorage) public {\r\n        myGeoLocationStorage = MyGeoLocationStorage(_myGeoLocationStorage);\r\n    }\r\n\r\n    // setters\r\n    function registerLocation(\r\n        bytes32 lat, \r\n        bytes32 lng, \r\n        bytes32 date\r\n    ) public {\r\n        \r\n        if (!checkUserExists(msg.sender))\r\n            myGeoLocationStorage.registerUser(msg.sender);    \r\n\r\n        myGeoLocationStorage.registerLocation(msg.sender, lat, lng, date);\r\n        emit newLocation(msg.sender, lat, lng, date);\r\n    }\r\n    \r\n    // only the user can see the places he visited\r\n    function getUserLocations() public view \r\n    returns (\r\n        bytes32[] memory lat, \r\n        bytes32[] memory lng,\r\n        bytes32[] memory date\r\n    ) {\r\n        require(checkUserExists(msg.sender), \"User does not exists\");\r\n        return myGeoLocationStorage.getLocations(msg.sender);\r\n    }\r\n    \r\n    function checkUserExists(address addr) public view returns (bool) {\r\n        address[] memory users = myGeoLocationStorage.getUserAddresses();\r\n        \r\n        for (uint i = 0; i < users.length; i++) {\r\n            if (users[i] == addr) {\r\n                return true;\r\n            } else {\r\n                return false;\r\n            }\r\n        }\r\n    }\r\n}",
  "sourcePath": "C:/Users/lucas.vieira/Desktop/Projetos/tracking-system/contracts/MyGeoLocationTracker.sol",
  "compiler": {
    "name": "solc",
    "version": "0.5.0+commit.1d4f565a.Emscripten.clang"
  },
  "schemaVersion": "3.0.1",
  "updatedAt": "2019-01-30T18:08:33.098Z",
  "devdoc": {
    "methods": {}
  },
  "userdoc": {
    "methods": {}
  }
}