{
  "contractName": "MyGeoLocationStorage",
  "abi": [
    {
      "constant": true,
      "inputs": [
        {
          "name": "",
          "type": "uint256"
        }
      ],
      "name": "users",
      "outputs": [
        {
          "name": "",
          "type": "address"
        }
      ],
      "payable": false,
      "stateMutability": "view",
      "type": "function"
    },
    {
      "inputs": [],
      "payable": false,
      "stateMutability": "nonpayable",
      "type": "constructor"
    },
    {
      "constant": false,
      "inputs": [
        {
          "name": "_address",
          "type": "address"
        }
      ],
      "name": "allowAccess",
      "outputs": [],
      "payable": false,
      "stateMutability": "nonpayable",
      "type": "function"
    },
    {
      "constant": false,
      "inputs": [
        {
          "name": "_address",
          "type": "address"
        }
      ],
      "name": "denyAccess",
      "outputs": [],
      "payable": false,
      "stateMutability": "nonpayable",
      "type": "function"
    },
    {
      "constant": false,
      "inputs": [
        {
          "name": "addr",
          "type": "address"
        },
        {
          "name": "lat",
          "type": "bytes32"
        },
        {
          "name": "lng",
          "type": "bytes32"
        }
      ],
      "name": "registerLocation",
      "outputs": [],
      "payable": false,
      "stateMutability": "nonpayable",
      "type": "function"
    },
    {
      "constant": false,
      "inputs": [
        {
          "name": "addr",
          "type": "address"
        }
      ],
      "name": "registerUser",
      "outputs": [],
      "payable": false,
      "stateMutability": "nonpayable",
      "type": "function"
    },
    {
      "constant": true,
      "inputs": [
        {
          "name": "addr",
          "type": "address"
        }
      ],
      "name": "getLocations",
      "outputs": [
        {
          "name": "lat",
          "type": "bytes32[]"
        },
        {
          "name": "lng",
          "type": "bytes32[]"
        }
      ],
      "payable": false,
      "stateMutability": "view",
      "type": "function"
    },
    {
      "constant": true,
      "inputs": [],
      "name": "getUserAddresses",
      "outputs": [
        {
          "name": "",
          "type": "address[]"
        }
      ],
      "payable": false,
      "stateMutability": "view",
      "type": "function"
    }
  ],
  "bytecode": "0x608060405234801561001057600080fd5b50336000908152600160208190526040909120805460ff191690911790556107308061003d6000396000f3006080604052600436106100825763ffffffff7c01000000000000000000000000000000000000000000000000000000006000350416632199d5cd8114610087578063365b98b2146100aa5780634ab8eaa6146100de57806361afd5ac14610198578063a591efde146101b9578063c4a85bc11461021e578063f3b6f6371461023f575b600080fd5b34801561009357600080fd5b506100a8600160a060020a0360043516610266565b005b3480156100b657600080fd5b506100c2600435610320565b60408051600160a060020a039092168252519081900360200190f35b3480156100ea57600080fd5b506100ff600160a060020a0360043516610348565b604051808060200180602001838103835285818151815260200191508051906020019060200280838360005b8381101561014357818101518382015260200161012b565b50505050905001838103825284818151815260200191508051906020019060200280838360005b8381101561018257818101518382015260200161016a565b5050505090500194505050505060405180910390f35b3480156101a457600080fd5b506100a8600160a060020a036004351661048b565b3480156101c557600080fd5b506101ce610507565b60408051602080825283518183015283519192839290830191858101910280838360005b8381101561020a5781810151838201526020016101f2565b505050509050019250505060405180910390f35b34801561022a57600080fd5b506100a8600160a060020a03600435166105c7565b34801561024b57600080fd5b506100a8600160a060020a0360043516602435604435610649565b3360009081526001602081905260409091205460ff161515146102c1576040805160e560020a62461bcd02815260206004820152601660248201526000805160206106e5833981519152604482015290519081900360640190fd5b600280546001810182556000919091527f405787fa12a823e0f2b7631cc41b3ba8828b3321ca811111fa75cd3aa3bb5ace01805473ffffffffffffffffffffffffffffffffffffffff1916600160a060020a0392909216919091179055565b600280548290811061032e57fe5b600091825260209091200154600160a060020a0316905081565b33600090815260016020819052604090912054606091829160ff161515146103a8576040805160e560020a62461bcd02815260206004820152601660248201526000805160206106e5833981519152604482015290519081900360640190fd5b600160a060020a038316600090815260208181526040918290208054835181840281018401909452808452909183018282801561040557602002820191906000526020600020905b815481526001909101906020018083116103f0575b5050505050915060008084600160a060020a0316600160a060020a0316815260200190815260200160002060010180548060200260200160405190810160405280929190818152602001828054801561047e57602002820191906000526020600020905b81548152600190910190602001808311610469575b5093945050505050915091565b3360009081526001602081905260409091205460ff161515146104e6576040805160e560020a62461bcd02815260206004820152601660248201526000805160206106e5833981519152604482015290519081900360640190fd5b600160a060020a03166000908152600160205260409020805460ff19169055565b3360009081526001602081905260409091205460609160ff909116151514610567576040805160e560020a62461bcd02815260206004820152601660248201526000805160206106e5833981519152604482015290519081900360640190fd5b60028054806020026020016040519081016040528092919081815260200182805480156105bd57602002820191906000526020600020905b8154600160a060020a0316815260019091019060200180831161059f575b5050505050905090565b3360009081526001602081905260409091205460ff16151514610622576040805160e560020a62461bcd02815260206004820152601660248201526000805160206106e5833981519152604482015290519081900360640190fd5b600160a060020a03166000908152600160208190526040909120805460ff19169091179055565b3360009081526001602081905260409091205460ff161515146106a4576040805160e560020a62461bcd02815260206004820152601660248201526000805160206106e5833981519152604482015290519081900360640190fd5b600160a060020a039092166000908152602081815260408220805460018181018355828552838520909101949094558301805493840181558252902001555600596f75206d75737420626520617574686f72697a656400000000000000000000a165627a7a72305820d25e2256d589ff6e5f3774d8d9ff86c8f47ba5b7e0bd3c8c270fb11dc12e9a760029",
  "source": "pragma solidity 0.4.24;\r\n\r\ncontract MyGeoLocationStorage {\r\n\r\n    struct user {\r\n        bytes32[] lat;\r\n        bytes32[] lng;\r\n    }\r\n    \r\n    mapping (address => user) userObj; \r\n    mapping (address => bool) accessAllowed;\r\n    address[] public users;\r\n\r\n    constructor() public {\r\n        accessAllowed[msg.sender] = true;\r\n    }\r\n\r\n    modifier platform() {\r\n        require(accessAllowed[msg.sender] == true, \"You must be authorized\");\r\n        _;\r\n    }\r\n\r\n    function allowAccess(address _address) public platform {\r\n        accessAllowed[_address] = true;\r\n    }\r\n    \r\n    function denyAccess(address _address) public platform {\r\n        accessAllowed[_address] = false;\r\n    }\r\n\r\n    // setters\r\n    function registerLocation(address addr, bytes32 lat, bytes32 lng) public platform {\r\n        userObj[addr].lat.push(lat);\r\n        userObj[addr].lng.push(lng);\r\n    }\r\n\r\n    function registerUser(address addr) public platform {\r\n        users.push(addr);\r\n    }\r\n\r\n    // getters\r\n    function getLocations(address addr) public view platform returns (bytes32[] memory lat, bytes32[] memory lng) {\r\n        lat = userObj[addr].lat;\r\n        lng = userObj[addr].lng;\r\n\r\n        return(lat, lng);\r\n    }\r\n\r\n    function getUserAddresses() public view platform returns (address[] memory) {\r\n        return users;\r\n    }\r\n}",
  "sourcePath": "C:\\Users\\lucas.vieira\\Desktop\\Dapps\\blockchain-tracking\\contracts\\MyGeoLocationStorage.sol",
  "compiler": {
    "name": "solc",
    "version": "0.4.24+commit.e67f0147.Emscripten.clang"
  },
  "schemaVersion": "2.0.1",
  "updatedAt": "2018-12-11T16:16:16.869Z"
}