{
  "contractName": "MyGeoLocationTracker",
  "abi": [
    {
      "constant": true,
      "inputs": [
        {
          "name": "",
          "type": "uint256"
        }
      ],
      "name": "users",
      "outputs": [
        {
          "name": "",
          "type": "address"
        }
      ],
      "payable": false,
      "stateMutability": "view",
      "type": "function"
    },
    {
      "anonymous": false,
      "inputs": [
        {
          "indexed": false,
          "name": "addr",
          "type": "address"
        },
        {
          "indexed": false,
          "name": "lat",
          "type": "bytes32"
        },
        {
          "indexed": false,
          "name": "lng",
          "type": "bytes32"
        }
      ],
      "name": "newLocation",
      "type": "event"
    },
    {
      "constant": false,
      "inputs": [
        {
          "name": "addr",
          "type": "address"
        },
        {
          "name": "lat",
          "type": "bytes32"
        },
        {
          "name": "lng",
          "type": "bytes32"
        }
      ],
      "name": "registerLocation",
      "outputs": [],
      "payable": false,
      "stateMutability": "nonpayable",
      "type": "function"
    },
    {
      "constant": true,
      "inputs": [
        {
          "name": "addr",
          "type": "address"
        }
      ],
      "name": "getUserLocations",
      "outputs": [
        {
          "name": "lat",
          "type": "bytes32[]"
        },
        {
          "name": "lng",
          "type": "bytes32[]"
        }
      ],
      "payable": false,
      "stateMutability": "view",
      "type": "function"
    },
    {
      "constant": true,
      "inputs": [
        {
          "name": "addr",
          "type": "address"
        }
      ],
      "name": "checkUserExists",
      "outputs": [
        {
          "name": "",
          "type": "bool"
        }
      ],
      "payable": false,
      "stateMutability": "view",
      "type": "function"
    }
  ],
  "bytecode": "0x608060405234801561001057600080fd5b50610709806100206000396000f300608060405260043610610062576000357c0100000000000000000000000000000000000000000000000000000000900463ffffffff168063133f50f514610067578063365b98b2146100c2578063db6c0a271461012f578063f3b6f6371461020f575b600080fd5b34801561007357600080fd5b506100a8600480360381019080803573ffffffffffffffffffffffffffffffffffffffff16906020019092919050505061026e565b604051808215151515815260200191505060405180910390f35b3480156100ce57600080fd5b506100ed60048036038101908080359060200190929190505050610308565b604051808273ffffffffffffffffffffffffffffffffffffffff1673ffffffffffffffffffffffffffffffffffffffff16815260200191505060405180910390f35b34801561013b57600080fd5b50610170600480360381019080803573ffffffffffffffffffffffffffffffffffffffff169060200190929190505050610346565b604051808060200180602001838103835285818151815260200191508051906020019060200280838360005b838110156101b757808201518184015260208101905061019c565b50505050905001838103825284818151815260200191508051906020019060200280838360005b838110156101f95780820151818401526020810190506101de565b5050505090500194505050505060405180910390f35b34801561021b57600080fd5b5061026c600480360381019080803573ffffffffffffffffffffffffffffffffffffffff169060200190929190803560001916906020019092919080356000191690602001909291905050506104fd565b005b60008060009050600180549050811015610301578273ffffffffffffffffffffffffffffffffffffffff166001828154811015156102a857fe5b9060005260206000200160009054906101000a900473ffffffffffffffffffffffffffffffffffffffff1673ffffffffffffffffffffffffffffffffffffffff1614156102f85760019150610302565b60009150610302565b5b50919050565b60018181548110151561031757fe5b906000526020600020016000915054906101000a900473ffffffffffffffffffffffffffffffffffffffff1681565b6060806103528361026e565b15156103c6576040517f08c379a00000000000000000000000000000000000000000000000000000000081526004018080602001828103825260148152602001807f5573657220646f6573206e6f742065786973747300000000000000000000000081525060200191505060405180910390fd5b6000808473ffffffffffffffffffffffffffffffffffffffff1673ffffffffffffffffffffffffffffffffffffffff16815260200190815260200160002060000180548060200260200160405190810160405280929190818152602001828054801561045557602002820191906000526020600020905b8154600019168152602001906001019080831161043d575b505050505091506000808473ffffffffffffffffffffffffffffffffffffffff1673ffffffffffffffffffffffffffffffffffffffff1681526020019081526020016000206001018054806020026020016040519081016040528092919081815260200182805480156104eb57602002820191906000526020600020905b815460001916815260200190600101908083116104d3575b50505050509050818191509150915091565b6105068361026e565b15156105735760018390806001815401808255809150509060018203906000526020600020016000909192909190916101000a81548173ffffffffffffffffffffffffffffffffffffffff021916908373ffffffffffffffffffffffffffffffffffffffff160217905550505b6000808473ffffffffffffffffffffffffffffffffffffffff1673ffffffffffffffffffffffffffffffffffffffff1681526020019081526020016000206000018290806001815401808255809150509060018203906000526020600020016000909192909190915090600019169055506000808473ffffffffffffffffffffffffffffffffffffffff1673ffffffffffffffffffffffffffffffffffffffff1681526020019081526020016000206001018190806001815401808255809150509060018203906000526020600020016000909192909190915090600019169055507f15e593c6adf2be5c425dc6d28f250fde7cde94a024de469489d6302951ae89e6838383604051808473ffffffffffffffffffffffffffffffffffffffff1673ffffffffffffffffffffffffffffffffffffffff16815260200183600019166000191681526020018260001916600019168152602001935050505060405180910390a15050505600a165627a7a72305820d81990d7a31d83aba4e578f7217636d4b8f96b5ca135a2c8258bd929872f2b110029",
  "source": "pragma solidity 0.4.24;\r\n\r\ncontract MyGeoLocationTracker {\r\n    \r\n    event newLocation(address addr, bytes32 lat, bytes32 lng);\r\n    \r\n    struct user {\r\n        bytes32[] lat;\r\n        bytes32[] lng;\r\n    }\r\n    \r\n    mapping (address => user) userObj; \r\n    address[] public users;\r\n    \r\n    function registerLocation(address addr, bytes32 lat, bytes32 lng) public {\r\n        \r\n        if (!checkUserExists(addr))\r\n            users.push(addr);    \r\n\r\n        userObj[addr].lat.push(lat);\r\n        userObj[addr].lng.push(lng);\r\n        \r\n        emit newLocation(addr, lat, lng);\r\n    }\r\n    \r\n    function getUserLocations(address addr) public view returns (bytes32[] memory lat, bytes32[] memory lng) {\r\n        \r\n        require(checkUserExists(addr), \"User does not exists\");\r\n        \r\n        lat = userObj[addr].lat;\r\n        lng = userObj[addr].lng;\r\n\r\n        return (lat, lng);\r\n    }\r\n    \r\n    function checkUserExists(address addr) public view returns (bool) {\r\n        for (uint i = 0; i < users.length; i++) {\r\n            if (users[i] == addr) {\r\n                return true;\r\n            } else {\r\n                return false;\r\n            }\r\n        }\r\n    }\r\n}",
  "sourcePath": "C:\\Users\\lucas\\Documents\\github\\blockchain-tracking\\contracts\\MyGeoLocationTracker.sol",
  "compiler": {
    "name": "solc",
    "version": "0.4.24+commit.e67f0147.Emscripten.clang"
  },
  "schemaVersion": "2.0.1",
  "updatedAt": "2018-12-09T13:21:28.643Z"
}