{
  "contractName": "MyGeoLocationStorage",
  "abi": [
    {
      "constant": true,
      "inputs": [
        {
          "name": "",
          "type": "uint256"
        }
      ],
      "name": "users",
      "outputs": [
        {
          "name": "",
          "type": "address"
        }
      ],
      "payable": false,
      "stateMutability": "view",
      "type": "function"
    },
    {
      "inputs": [],
      "payable": false,
      "stateMutability": "nonpayable",
      "type": "constructor"
    },
    {
      "constant": false,
      "inputs": [
        {
          "name": "_address",
          "type": "address"
        }
      ],
      "name": "allowAccess",
      "outputs": [],
      "payable": false,
      "stateMutability": "nonpayable",
      "type": "function"
    },
    {
      "constant": false,
      "inputs": [
        {
          "name": "_address",
          "type": "address"
        }
      ],
      "name": "denyAccess",
      "outputs": [],
      "payable": false,
      "stateMutability": "nonpayable",
      "type": "function"
    },
    {
      "constant": false,
      "inputs": [
        {
          "name": "addr",
          "type": "address"
        },
        {
          "name": "lat",
          "type": "bytes32"
        },
        {
          "name": "lng",
          "type": "bytes32"
        },
        {
          "name": "date",
          "type": "bytes32"
        }
      ],
      "name": "registerLocation",
      "outputs": [],
      "payable": false,
      "stateMutability": "nonpayable",
      "type": "function"
    },
    {
      "constant": false,
      "inputs": [
        {
          "name": "addr",
          "type": "address"
        }
      ],
      "name": "registerUser",
      "outputs": [],
      "payable": false,
      "stateMutability": "nonpayable",
      "type": "function"
    },
    {
      "constant": true,
      "inputs": [
        {
          "name": "addr",
          "type": "address"
        }
      ],
      "name": "getLocations",
      "outputs": [
        {
          "name": "lat",
          "type": "bytes32[]"
        },
        {
          "name": "lng",
          "type": "bytes32[]"
        },
        {
          "name": "date",
          "type": "bytes32[]"
        }
      ],
      "payable": false,
      "stateMutability": "view",
      "type": "function"
    },
    {
      "constant": true,
      "inputs": [],
      "name": "getUserAddresses",
      "outputs": [
        {
          "name": "",
          "type": "address[]"
        }
      ],
      "payable": false,
      "stateMutability": "view",
      "type": "function"
    }
  ],
  "bytecode": "0x608060405234801561001057600080fd5b50336000908152600160208190526040909120805460ff191690911790556108808061003d6000396000f3fe6080604052600436106100825763ffffffff7c01000000000000000000000000000000000000000000000000000000006000350416632199d5cd8114610087578063365b98b2146100bc5780634ab8eaa61461010257806361afd5ac14610213578063a591efde14610246578063c4a85bc1146102ab578063ca863c85146102de575b600080fd5b34801561009357600080fd5b506100ba600480360360208110156100aa57600080fd5b5035600160a060020a0316610323565b005b3480156100c857600080fd5b506100e6600480360360208110156100df57600080fd5b50356103dd565b60408051600160a060020a039092168252519081900360200190f35b34801561010e57600080fd5b506101356004803603602081101561012557600080fd5b5035600160a060020a0316610405565b60405180806020018060200180602001848103845287818151815260200191508051906020019060200280838360005b8381101561017d578181015183820152602001610165565b50505050905001848103835286818151815260200191508051906020019060200280838360005b838110156101bc5781810151838201526020016101a4565b50505050905001848103825285818151815260200191508051906020019060200280838360005b838110156101fb5781810151838201526020016101e3565b50505050905001965050505050505060405180910390f35b34801561021f57600080fd5b506100ba6004803603602081101561023657600080fd5b5035600160a060020a03166105c4565b34801561025257600080fd5b5061025b610640565b60408051602080825283518183015283519192839290830191858101910280838360005b8381101561029757818101518382015260200161027f565b505050509050019250505060405180910390f35b3480156102b757600080fd5b506100ba600480360360208110156102ce57600080fd5b5035600160a060020a0316610700565b3480156102ea57600080fd5b506100ba6004803603608081101561030157600080fd5b50600160a060020a038135169060208101359060408101359060600135610782565b3360009081526001602081905260409091205460ff1615151461037e576040805160e560020a62461bcd0281526020600482015260166024820152600080516020610835833981519152604482015290519081900360640190fd5b600280546001810182556000919091527f405787fa12a823e0f2b7631cc41b3ba8828b3321ca811111fa75cd3aa3bb5ace01805473ffffffffffffffffffffffffffffffffffffffff1916600160a060020a0392909216919091179055565b60028054829081106103eb57fe5b600091825260209091200154600160a060020a0316905081565b336000908152600160208190526040909120546060918291829160ff909116151514610469576040805160e560020a62461bcd0281526020600482015260166024820152600080516020610835833981519152604482015290519081900360640190fd5b600160a060020a03841660009081526020818152604091829020805483518184028101840190945280845290918301828280156104c557602002820191906000526020600020905b8154815260200190600101908083116104b1575b5050505050925060008085600160a060020a0316600160a060020a0316815260200190815260200160002060010180548060200260200160405190810160405280929190818152602001828054801561053d57602002820191906000526020600020905b815481526020019060010190808311610529575b5050505050915060008085600160a060020a0316600160a060020a031681526020019081526020016000206002018054806020026020016040519081016040528092919081815260200182805480156105b557602002820191906000526020600020905b8154815260200190600101908083116105a1575b50939450505050509193909250565b3360009081526001602081905260409091205460ff1615151461061f576040805160e560020a62461bcd0281526020600482015260166024820152600080516020610835833981519152604482015290519081900360640190fd5b600160a060020a03166000908152600160205260409020805460ff19169055565b3360009081526001602081905260409091205460609160ff9091161515146106a0576040805160e560020a62461bcd0281526020600482015260166024820152600080516020610835833981519152604482015290519081900360640190fd5b60028054806020026020016040519081016040528092919081815260200182805480156106f657602002820191906000526020600020905b8154600160a060020a031681526001909101906020018083116106d8575b5050505050905090565b3360009081526001602081905260409091205460ff1615151461075b576040805160e560020a62461bcd0281526020600482015260166024820152600080516020610835833981519152604482015290519081900360640190fd5b600160a060020a03166000908152600160208190526040909120805460ff19169091179055565b3360009081526001602081905260409091205460ff161515146107dd576040805160e560020a62461bcd0281526020600482015260166024820152600080516020610835833981519152604482015290519081900360640190fd5b600160a060020a03909316600090815260208181526040822080546001818101835582855283852090910195909555848101805480870182559084528284200193909355600290920180549384018155815220015556fe596f75206d75737420626520617574686f72697a656400000000000000000000a165627a7a7230582017db5c9219b20e38606a104fbb7bd56116cc9426048408a8e5b2dc4e89ec74a40029",
  "source": "pragma solidity 0.5.0;\r\n\r\ncontract MyGeoLocationStorage {\r\n\r\n    struct user {\r\n        bytes32[] lat;\r\n        bytes32[] lng;\r\n        bytes32[] date;\r\n    }\r\n    \r\n    mapping (address => user) userObj; \r\n    mapping (address => bool) accessAllowed;\r\n    address[] public users;\r\n\r\n    constructor() public {\r\n        accessAllowed[msg.sender] = true;\r\n    }\r\n\r\n    modifier platform() {\r\n        require(accessAllowed[msg.sender] == true, \"You must be authorized\");\r\n        _;\r\n    }\r\n\r\n    function allowAccess(address _address) public platform {\r\n        accessAllowed[_address] = true;\r\n    }\r\n    \r\n    function denyAccess(address _address) public platform {\r\n        accessAllowed[_address] = false;\r\n    }\r\n\r\n    // setters\r\n    function registerLocation(\r\n        address addr, \r\n        bytes32 lat, \r\n        bytes32 lng, \r\n        bytes32 date\r\n    ) public platform {\r\n        userObj[addr].lat.push(lat);\r\n        userObj[addr].lng.push(lng);\r\n        userObj[addr].date.push(date);\r\n    }\r\n\r\n    function registerUser(address addr) public platform {\r\n        users.push(addr);\r\n    }\r\n\r\n    // getters\r\n    function getLocations(address addr) public view platform \r\n    returns (\r\n        bytes32[] memory lat, \r\n        bytes32[] memory lng,\r\n        bytes32[] memory date\r\n    ) {\r\n        lat = userObj[addr].lat;\r\n        lng = userObj[addr].lng;\r\n        date = userObj[addr].date;\r\n        return(lat, lng, date);\r\n    }\r\n\r\n    function getUserAddresses() public view platform returns (address[] memory) {\r\n        return users;\r\n    }\r\n}",
  "sourcePath": "C:\\Users\\lucas.vieira\\Desktop\\Projetos\\tracking-system\\contracts\\MyGeoLocationStorage.sol",
  "compiler": {
    "name": "solc",
    "version": "0.5.0+commit.1d4f565a.Emscripten.clang"
  },
  "schemaVersion": "3.0.1",
  "updatedAt": "2019-01-30T18:08:33.103Z",
  "devdoc": {
    "methods": {}
  },
  "userdoc": {
    "methods": {}
  }
}